{
  "address": "0x5FbDB2315678afecb367f032d93F642f64180aa3",
  "abi": [
    {
      "anonymous": false,
      "inputs": [
        {
          "indexed": true,
          "internalType": "address",
          "name": "previousOwner",
          "type": "address"
        },
        {
          "indexed": true,
          "internalType": "address",
          "name": "newOwner",
          "type": "address"
        }
      ],
      "name": "OwnershipTransferred",
      "type": "event"
    },
    {
      "inputs": [
        {
          "internalType": "address",
          "name": "_employee",
          "type": "address"
        },
        {
          "internalType": "string",
          "name": "_name",
          "type": "string"
        },
        {
          "internalType": "string",
          "name": "_position",
          "type": "string"
        }
      ],
      "name": "addEmployee",
      "outputs": [],
      "stateMutability": "nonpayable",
      "type": "function"
    },
    {
      "inputs": [
        {
          "internalType": "address",
          "name": "",
          "type": "address"
        }
      ],
      "name": "employeeDetail",
      "outputs": [
        {
          "internalType": "uint256",
          "name": "employeeIndex",
          "type": "uint256"
        },
        {
          "internalType": "string",
          "name": "name",
          "type": "string"
        },
        {
          "internalType": "string",
          "name": "position",
          "type": "string"
        }
      ],
      "stateMutability": "view",
      "type": "function"
    },
    {
      "inputs": [],
      "name": "employeeLength",
      "outputs": [
        {
          "internalType": "uint256",
          "name": "",
          "type": "uint256"
        }
      ],
      "stateMutability": "view",
      "type": "function"
    },
    {
      "inputs": [
        {
          "internalType": "uint256",
          "name": "",
          "type": "uint256"
        }
      ],
      "name": "employees",
      "outputs": [
        {
          "internalType": "address",
          "name": "",
          "type": "address"
        }
      ],
      "stateMutability": "view",
      "type": "function"
    },
    {
      "inputs": [
        {
          "internalType": "address",
          "name": "_employee",
          "type": "address"
        }
      ],
      "name": "isEmployeeExist",
      "outputs": [
        {
          "internalType": "bool",
          "name": "",
          "type": "bool"
        }
      ],
      "stateMutability": "view",
      "type": "function"
    },
    {
      "inputs": [],
      "name": "owner",
      "outputs": [
        {
          "internalType": "address",
          "name": "",
          "type": "address"
        }
      ],
      "stateMutability": "view",
      "type": "function"
    },
    {
      "inputs": [
        {
          "internalType": "address",
          "name": "_employee",
          "type": "address"
        }
      ],
      "name": "removeEmployee",
      "outputs": [],
      "stateMutability": "nonpayable",
      "type": "function"
    },
    {
      "inputs": [],
      "name": "renounceOwnership",
      "outputs": [],
      "stateMutability": "nonpayable",
      "type": "function"
    },
    {
      "inputs": [
        {
          "internalType": "address",
          "name": "newOwner",
          "type": "address"
        }
      ],
      "name": "transferOwnership",
      "outputs": [],
      "stateMutability": "nonpayable",
      "type": "function"
    }
  ],
  "transactionHash": "0xcb5c95f3291ebac8d1d6f3e4002a18346f696e26520ae9262e8201581a2aafdc",
  "args": [],
  "numDeployments": 1,
  "solcInputHash": "1b8e048df2f02b2a9b476a871fa9722e",
  "bytecode": "0x608060405234801561001057600080fd5b5061001a3361001f565b61006f565b600080546001600160a01b038381166001600160a01b0319831681178455604051919092169283917f8be0079c531659141344cd1fd0a4f28419497f9722a3daafe3b4186f6b6457e09190a35050565b610ad08061007e6000396000f3fe608060405234801561001057600080fd5b50600436106100935760003560e01c8063715018a611610066578063715018a6146101225780638da5cb5b1461012c578063d108177a1461013d578063e63a261514610150578063f2fde38b1461016357600080fd5b80632158864b1461009857806335950120146100c35780634739326b146100e657806353b8f38114610111575b600080fd5b6100ab6100a6366004610768565b610176565b6040516100ba939291906107d0565b60405180910390f35b6100d66100d1366004610768565b6102a8565b60405190151581526020016100ba565b6100f96100f4366004610805565b61030f565b6040516001600160a01b0390911681526020016100ba565b6002546040519081526020016100ba565b61012a610339565b005b6000546001600160a01b03166100f9565b61012a61014b366004610768565b61034d565b61012a61015e366004610867565b6104a8565b61012a610171366004610768565b6105db565b600160208190526000918252604090912080549181018054610197906108e8565b80601f01602080910402602001604051908101604052809291908181526020018280546101c3906108e8565b80156102105780601f106101e557610100808354040283529160200191610210565b820191906000526020600020905b8154815290600101906020018083116101f357829003601f168201915b505050505090806002018054610225906108e8565b80601f0160208091040260200160405190810160405280929190818152602001828054610251906108e8565b801561029e5780601f106102735761010080835404028352916020019161029e565b820191906000526020600020905b81548152906001019060200180831161028157829003601f168201915b5050505050905083565b60006102b360025490565b6000036102c257506000919050565b6001600160a01b03821660008181526001602052604090205460028054919291839081106102f2576102f2610922565b6000918252602090912001546001600160a01b0316149392505050565b6002818154811061031f57600080fd5b6000918252602090912001546001600160a01b0316905081565b610341610654565b61034b60006106ae565b565b610355610654565b61035e816102a8565b61039b5760405162461bcd60e51b81526020600482015260096024820152681b9bdd08199bdd5b9960ba1b60448201526064015b60405180910390fd5b6001600160a01b038116600090815260016020819052604082205491906002906103c460025490565b6103ce9190610938565b815481106103de576103de610922565b600091825260209091200154600280546001600160a01b03909216925082918490811061040d5761040d610922565b600091825260208083209190910180546001600160a01b0319166001600160a01b0394851617905583831682526001908190526040808320869055928616825291812081815591610460908301826106fe565b61046e6002830160006106fe565b505060028054806104815761048161095f565b600082815260209020810160001990810180546001600160a01b0319169055019055505050565b6104b0610654565b60405180606001604052806104c460025490565b815260200185858080601f016020809104026020016040519081016040528093929190818152602001838380828437600092019190915250505090825250604080516020601f86018190048102820181019092528481529181019190859085908190840183828082843760009201829052509390945250506001600160a01b0388168152600160208181526040909220845181559184015191925082019061056c90826109da565b506040820151600282019061058190826109da565b5050600280546001810182556000919091527f405787fa12a823e0f2b7631cc41b3ba8828b3321ca811111fa75cd3aa3bb5ace0180546001600160a01b0319166001600160a01b0397909716969096179095555050505050565b6105e3610654565b6001600160a01b0381166106485760405162461bcd60e51b815260206004820152602660248201527f4f776e61626c653a206e6577206f776e657220697320746865207a65726f206160448201526564647265737360d01b6064820152608401610392565b610651816106ae565b50565b6000546001600160a01b0316331461034b5760405162461bcd60e51b815260206004820181905260248201527f4f776e61626c653a2063616c6c6572206973206e6f7420746865206f776e65726044820152606401610392565b600080546001600160a01b038381166001600160a01b0319831681178455604051919092169283917f8be0079c531659141344cd1fd0a4f28419497f9722a3daafe3b4186f6b6457e09190a35050565b50805461070a906108e8565b6000825580601f1061071a575050565b601f01602090049060005260206000209081019061065191905b808211156107485760008155600101610734565b5090565b80356001600160a01b038116811461076357600080fd5b919050565b60006020828403121561077a57600080fd5b6107838261074c565b9392505050565b6000815180845260005b818110156107b057602081850181015186830182015201610794565b506000602082860101526020601f19601f83011685010191505092915050565b8381526060602082015260006107e9606083018561078a565b82810360408401526107fb818561078a565b9695505050505050565b60006020828403121561081757600080fd5b5035919050565b60008083601f84011261083057600080fd5b50813567ffffffffffffffff81111561084857600080fd5b60208301915083602082850101111561086057600080fd5b9250929050565b60008060008060006060868803121561087f57600080fd5b6108888661074c565b9450602086013567ffffffffffffffff808211156108a557600080fd5b6108b189838a0161081e565b909650945060408801359150808211156108ca57600080fd5b506108d78882890161081e565b969995985093965092949392505050565b600181811c908216806108fc57607f821691505b60208210810361091c57634e487b7160e01b600052602260045260246000fd5b50919050565b634e487b7160e01b600052603260045260246000fd5b8181038181111561095957634e487b7160e01b600052601160045260246000fd5b92915050565b634e487b7160e01b600052603160045260246000fd5b634e487b7160e01b600052604160045260246000fd5b601f8211156109d557600081815260208120601f850160051c810160208610156109b25750805b601f850160051c820191505b818110156109d1578281556001016109be565b5050505b505050565b815167ffffffffffffffff8111156109f4576109f4610975565b610a0881610a0284546108e8565b8461098b565b602080601f831160018114610a3d5760008415610a255750858301515b600019600386901b1c1916600185901b1785556109d1565b600085815260208120601f198616915b82811015610a6c57888601518255948401946001909101908401610a4d565b5085821015610a8a5787850151600019600388901b60f8161c191681555b5050505050600190811b0190555056fea2646970667358221220be9e3a65e2a3c3753ce7285e5de14b40e9679aed5130cca860658676463fe32864736f6c63430008130033",
  "devdoc": {
    "kind": "dev",
    "methods": {
      "owner()": {
        "details": "Returns the address of the current owner."
      },
      "renounceOwnership()": {
        "details": "Leaves the contract without owner. It will not be possible to call `onlyOwner` functions. Can only be called by the current owner. NOTE: Renouncing ownership will leave the contract without an owner, thereby disabling any functionality that is only available to the owner."
      },
      "transferOwnership(address)": {
        "details": "Transfers ownership of the contract to a new account (`newOwner`). Can only be called by the current owner."
      }
    },
    "version": 1
  },
  "userdoc": {
    "kind": "user",
    "methods": {},
    "version": 1
  },
  "storageLayout": {
    "storage": [
      {
        "astId": 7,
        "contract": "contracts/Contract4October/Employee.sol:Employee",
        "label": "_owner",
        "offset": 0,
        "slot": "0",
        "type": "t_address"
      },
      {
        "astId": 258,
        "contract": "contracts/Contract4October/Employee.sol:Employee",
        "label": "employeeDetail",
        "offset": 0,
        "slot": "1",
        "type": "t_mapping(t_address,t_struct(Detail)253_storage)"
      },
      {
        "astId": 261,
        "contract": "contracts/Contract4October/Employee.sol:Employee",
        "label": "employees",
        "offset": 0,
        "slot": "2",
        "type": "t_array(t_address)dyn_storage"
      }
    ],
    "types": {
      "t_address": {
        "encoding": "inplace",
        "label": "address",
        "numberOfBytes": "20"
      },
      "t_array(t_address)dyn_storage": {
        "base": "t_address",
        "encoding": "dynamic_array",
        "label": "address[]",
        "numberOfBytes": "32"
      },
      "t_mapping(t_address,t_struct(Detail)253_storage)": {
        "encoding": "mapping",
        "key": "t_address",
        "label": "mapping(address => struct Employee.Detail)",
        "numberOfBytes": "32",
        "value": "t_struct(Detail)253_storage"
      },
      "t_string_storage": {
        "encoding": "bytes",
        "label": "string",
        "numberOfBytes": "32"
      },
      "t_struct(Detail)253_storage": {
        "encoding": "inplace",
        "label": "struct Employee.Detail",
        "members": [
          {
            "astId": 248,
            "contract": "contracts/Contract4October/Employee.sol:Employee",
            "label": "employeeIndex",
            "offset": 0,
            "slot": "0",
            "type": "t_uint256"
          },
          {
            "astId": 250,
            "contract": "contracts/Contract4October/Employee.sol:Employee",
            "label": "name",
            "offset": 0,
            "slot": "1",
            "type": "t_string_storage"
          },
          {
            "astId": 252,
            "contract": "contracts/Contract4October/Employee.sol:Employee",
            "label": "position",
            "offset": 0,
            "slot": "2",
            "type": "t_string_storage"
          }
        ],
        "numberOfBytes": "96"
      },
      "t_uint256": {
        "encoding": "inplace",
        "label": "uint256",
        "numberOfBytes": "32"
      }
    }
  }
}