{
  "address": "0x9fE46736679d2D9a65F0992F2272dE9f3c7fa6e0",
  "abi": [
    {
      "inputs": [],
      "stateMutability": "nonpayable",
      "type": "constructor"
    },
    {
      "anonymous": false,
      "inputs": [
        {
          "indexed": false,
          "internalType": "address",
          "name": "user",
          "type": "address"
        }
      ],
      "name": "UserAdded",
      "type": "event"
    },
    {
      "inputs": [
        {
          "internalType": "address",
          "name": "",
          "type": "address"
        }
      ],
      "name": "balance",
      "outputs": [
        {
          "internalType": "uint256",
          "name": "",
          "type": "uint256"
        }
      ],
      "stateMutability": "view",
      "type": "function"
    },
    {
      "inputs": [
        {
          "internalType": "uint256",
          "name": "",
          "type": "uint256"
        }
      ],
      "name": "buku",
      "outputs": [
        {
          "internalType": "string",
          "name": "ISBN",
          "type": "string"
        },
        {
          "internalType": "string",
          "name": "judul",
          "type": "string"
        },
        {
          "internalType": "uint256",
          "name": "tahunDibuat",
          "type": "uint256"
        },
        {
          "internalType": "string",
          "name": "penulis",
          "type": "string"
        }
      ],
      "stateMutability": "view",
      "type": "function"
    },
    {
      "inputs": [
        {
          "internalType": "string",
          "name": "_ISBN",
          "type": "string"
        }
      ],
      "name": "getDataBuku",
      "outputs": [
        {
          "internalType": "string",
          "name": "",
          "type": "string"
        },
        {
          "internalType": "string",
          "name": "",
          "type": "string"
        },
        {
          "internalType": "uint256",
          "name": "",
          "type": "uint256"
        },
        {
          "internalType": "string",
          "name": "",
          "type": "string"
        }
      ],
      "stateMutability": "view",
      "type": "function"
    },
    {
      "inputs": [
        {
          "internalType": "string",
          "name": "_ISBN",
          "type": "string"
        }
      ],
      "name": "hapusBuku",
      "outputs": [],
      "stateMutability": "nonpayable",
      "type": "function"
    },
    {
      "inputs": [
        {
          "internalType": "address",
          "name": "",
          "type": "address"
        }
      ],
      "name": "isAdmin",
      "outputs": [
        {
          "internalType": "bool",
          "name": "",
          "type": "bool"
        }
      ],
      "stateMutability": "view",
      "type": "function"
    },
    {
      "inputs": [],
      "name": "owner",
      "outputs": [
        {
          "internalType": "address",
          "name": "",
          "type": "address"
        }
      ],
      "stateMutability": "view",
      "type": "function"
    },
    {
      "inputs": [
        {
          "internalType": "string",
          "name": "_ISBN",
          "type": "string"
        },
        {
          "internalType": "string",
          "name": "_judul",
          "type": "string"
        },
        {
          "internalType": "uint256",
          "name": "_tahun",
          "type": "uint256"
        },
        {
          "internalType": "string",
          "name": "_penulis",
          "type": "string"
        }
      ],
      "name": "tambahBuku",
      "outputs": [],
      "stateMutability": "nonpayable",
      "type": "function"
    },
    {
      "inputs": [
        {
          "internalType": "string",
          "name": "_ISBN",
          "type": "string"
        },
        {
          "internalType": "string",
          "name": "_judul",
          "type": "string"
        },
        {
          "internalType": "uint256",
          "name": "_tahun",
          "type": "uint256"
        },
        {
          "internalType": "string",
          "name": "_penulis",
          "type": "string"
        }
      ],
      "name": "updateBuku",
      "outputs": [],
      "stateMutability": "nonpayable",
      "type": "function"
    },
    {
      "inputs": [],
      "name": "userDetail",
      "outputs": [
        {
          "internalType": "address",
          "name": "user",
          "type": "address"
        },
        {
          "internalType": "bool",
          "name": "isPassed",
          "type": "bool"
        },
        {
          "internalType": "string",
          "name": "userName",
          "type": "string"
        }
      ],
      "stateMutability": "view",
      "type": "function"
    }
  ],
  "transactionHash": "0x4fd9560d624c83ec60910faad56d2984a2a0786180bb7a80f56c0012d04f0a9a",
  "args": [],
  "numDeployments": 1,
  "solcInputHash": "a454ba91f38147bd04925bb7004d18ad",
  "bytecode": "0x6080604052600580546001600160a01b031916735b38da6a701c568545dcfcb03fcb875f56beddc417905534801561003657600080fd5b50336000908152600160208190526040909120805460ff19169091179055610f91806100636000396000f3fe608060405234801561001057600080fd5b50600436106100935760003560e01c806389ef65d41161006657806389ef65d41461011b5780638da5cb5b1461012e57806396de0fc714610159578063e153270e1461016c578063e3d670d71461018357600080fd5b806324d7806c146100985780634c30b541146100d05780636631d4f0146100f357806385af0a9b14610108575b600080fd5b6100bb6100a6366004610a95565b60016020526000908152604090205460ff1681565b60405190151581526020015b60405180910390f35b6100e36100de366004610ac5565b6101b1565b6040516100c79493929190610b24565b610106610101366004610c11565b610389565b005b610106610116366004610c11565b610463565b6100e3610129366004610ca3565b610590565b600554610141906001600160a01b031681565b6040516001600160a01b0390911681526020016100c7565b610106610167366004610ca3565b6108a1565b610174610992565b6040516100c793929190610ce0565b6101a3610191366004610a95565b60046020526000908152604090205481565b6040519081526020016100c7565b600081815481106101c157600080fd5b90600052602060002090600402016000915090508060000180546101e490610d15565b80601f016020809104026020016040519081016040528092919081815260200182805461021090610d15565b801561025d5780601f106102325761010080835404028352916020019161025d565b820191906000526020600020905b81548152906001019060200180831161024057829003601f168201915b50505050509080600101805461027290610d15565b80601f016020809104026020016040519081016040528092919081815260200182805461029e90610d15565b80156102eb5780601f106102c0576101008083540402835291602001916102eb565b820191906000526020600020905b8154815290600101906020018083116102ce57829003601f168201915b50505050509080600201549080600301805461030690610d15565b80601f016020809104026020016040519081016040528092919081815260200182805461033290610d15565b801561037f5780601f106103545761010080835404028352916020019161037f565b820191906000526020600020905b81548152906001019060200180831161036257829003601f168201915b5050505050905084565b3360009081526001602052604090205460ff166103c15760405162461bcd60e51b81526004016103b890610d4f565b60405180910390fd5b60408051608081018252858152602081018590529081018390526060810182905260008054600181018255908052815182916004027f290decd9548b62a8d60345a988386fc84ba6bc95484008f6362f93160ef3e563019081906104259082610de8565b506020820151600182019061043a9082610de8565b5060408201516002820155606082015160038201906104599082610de8565b5050505050505050565b3360009081526001602052604090205460ff166104925760405162461bcd60e51b81526004016103b890610d4f565b60005b600054811015610589578480519060200120600082815481106104ba576104ba610ea8565b90600052602060002090600402016000016040516104d89190610ebe565b6040518091039020036105775783600082815481106104f9576104f9610ea8565b906000526020600020906004020160010190816105169190610de8565b50826000828154811061052b5761052b610ea8565b906000526020600020906004020160020181905550816000828154811061055457610554610ea8565b906000526020600020906004020160030190816105719190610de8565b50610589565b8061058181610f34565b915050610495565b5050505050565b6060806000606060005b60005481101561083f578580519060200120600082815481106105bf576105bf610ea8565b90600052602060002090600402016000016040516105dd9190610ebe565b60405180910390200361082d57600081815481106105fd576105fd610ea8565b90600052602060002090600402016000016000828154811061062157610621610ea8565b90600052602060002090600402016001016000838154811061064557610645610ea8565b9060005260206000209060040201600201546000848154811061066a5761066a610ea8565b906000526020600020906004020160030183805461068790610d15565b80601f01602080910402602001604051908101604052809291908181526020018280546106b390610d15565b80156107005780601f106106d557610100808354040283529160200191610700565b820191906000526020600020905b8154815290600101906020018083116106e357829003601f168201915b5050505050935082805461071390610d15565b80601f016020809104026020016040519081016040528092919081815260200182805461073f90610d15565b801561078c5780601f106107615761010080835404028352916020019161078c565b820191906000526020600020905b81548152906001019060200180831161076f57829003601f168201915b5050505050925080805461079f90610d15565b80601f01602080910402602001604051908101604052809291908181526020018280546107cb90610d15565b80156108185780601f106107ed57610100808354040283529160200191610818565b820191906000526020600020905b8154815290600101906020018083116107fb57829003601f168201915b5050505050905094509450945094505061089a565b8061083781610f34565b91505061059a565b5060405162461bcd60e51b815260206004820152602960248201527f42756b752064656e67616e204953424e20746572736562757420746964616b206044820152683234ba32b6bab5b0b760b91b60648201526084016103b8565b9193509193565b3360009081526001602052604090205460ff166108d05760405162461bcd60e51b81526004016103b890610d4f565b60005b60005481101561098e578180519060200120600082815481106108f8576108f8610ea8565b90600052602060002090600402016000016040516109169190610ebe565b60405180910390200361097c576000818154811061093657610936610ea8565b600091825260208220600490910201906109508282610a3f565b61095e600183016000610a3f565b60028201600090556003820160006109769190610a3f565b50505050565b8061098681610f34565b9150506108d3565b5050565b60028054600380546001600160a01b03831693600160a01b90930460ff169291906109bc90610d15565b80601f01602080910402602001604051908101604052809291908181526020018280546109e890610d15565b8015610a355780601f10610a0a57610100808354040283529160200191610a35565b820191906000526020600020905b815481529060010190602001808311610a1857829003601f168201915b5050505050905083565b508054610a4b90610d15565b6000825580601f10610a5b575050565b601f016020900490600052602060002090810190610a799190610a7c565b50565b5b80821115610a915760008155600101610a7d565b5090565b600060208284031215610aa757600080fd5b81356001600160a01b0381168114610abe57600080fd5b9392505050565b600060208284031215610ad757600080fd5b5035919050565b6000815180845260005b81811015610b0457602081850181015186830182015201610ae8565b506000602082860101526020601f19601f83011685010191505092915050565b608081526000610b376080830187610ade565b8281036020840152610b498187610ade565b90508460408401528281036060840152610b638185610ade565b979650505050505050565b634e487b7160e01b600052604160045260246000fd5b600082601f830112610b9557600080fd5b813567ffffffffffffffff80821115610bb057610bb0610b6e565b604051601f8301601f19908116603f01168101908282118183101715610bd857610bd8610b6e565b81604052838152866020858801011115610bf157600080fd5b836020870160208301376000602085830101528094505050505092915050565b60008060008060808587031215610c2757600080fd5b843567ffffffffffffffff80821115610c3f57600080fd5b610c4b88838901610b84565b95506020870135915080821115610c6157600080fd5b610c6d88838901610b84565b9450604087013593506060870135915080821115610c8a57600080fd5b50610c9787828801610b84565b91505092959194509250565b600060208284031215610cb557600080fd5b813567ffffffffffffffff811115610ccc57600080fd5b610cd884828501610b84565b949350505050565b6001600160a01b03841681528215156020820152606060408201819052600090610d0c90830184610ade565b95945050505050565b600181811c90821680610d2957607f821691505b602082108103610d4957634e487b7160e01b600052602260045260246000fd5b50919050565b6020808252602a908201527f48616e79612061646d696e2079616e672062697361206d656e67616b7365732060408201526966756e67736920696e6960b01b606082015260800190565b601f821115610de357600081815260208120601f850160051c81016020861015610dc05750805b601f850160051c820191505b81811015610ddf57828155600101610dcc565b5050505b505050565b815167ffffffffffffffff811115610e0257610e02610b6e565b610e1681610e108454610d15565b84610d99565b602080601f831160018114610e4b5760008415610e335750858301515b600019600386901b1c1916600185901b178555610ddf565b600085815260208120601f198616915b82811015610e7a57888601518255948401946001909101908401610e5b565b5085821015610e985787850151600019600388901b60f8161c191681555b5050505050600190811b01905550565b634e487b7160e01b600052603260045260246000fd5b6000808354610ecc81610d15565b60018281168015610ee45760018114610ef957610f28565b60ff1984168752821515830287019450610f28565b8760005260208060002060005b85811015610f1f5781548a820152908401908201610f06565b50505082870194505b50929695505050505050565b600060018201610f5457634e487b7160e01b600052601160045260246000fd5b506001019056fea26469706673582212205a6b867b40094e392d14018f850731f4d7944083ad3dfcd457854a55d884069a64736f6c63430008130033",
  "devdoc": {
    "kind": "dev",
    "methods": {},
    "version": 1
  },
  "userdoc": {
    "kind": "user",
    "methods": {},
    "version": 1
  },
  "storageLayout": {
    "storage": [
      {
        "astId": 70,
        "contract": "contracts/Perpustakaan/Perpustakaan.sol:Perpustakaan",
        "label": "buku",
        "offset": 0,
        "slot": "0",
        "type": "t_array(t_struct(Buku)66_storage)dyn_storage"
      },
      {
        "astId": 74,
        "contract": "contracts/Perpustakaan/Perpustakaan.sol:Perpustakaan",
        "label": "isAdmin",
        "offset": 0,
        "slot": "1",
        "type": "t_mapping(t_address,t_bool)"
      },
      {
        "astId": 204,
        "contract": "contracts/Perpustakaan/Perpustakaan.sol:Perpustakaan",
        "label": "userDetail",
        "offset": 0,
        "slot": "2",
        "type": "t_struct(UserDetail)201_storage"
      },
      {
        "astId": 208,
        "contract": "contracts/Perpustakaan/Perpustakaan.sol:Perpustakaan",
        "label": "balance",
        "offset": 0,
        "slot": "4",
        "type": "t_mapping(t_address,t_uint256)"
      },
      {
        "astId": 215,
        "contract": "contracts/Perpustakaan/Perpustakaan.sol:Perpustakaan",
        "label": "owner",
        "offset": 0,
        "slot": "5",
        "type": "t_address"
      }
    ],
    "types": {
      "t_address": {
        "encoding": "inplace",
        "label": "address",
        "numberOfBytes": "20"
      },
      "t_array(t_struct(Buku)66_storage)dyn_storage": {
        "base": "t_struct(Buku)66_storage",
        "encoding": "dynamic_array",
        "label": "struct Perpustakaan.Buku[]",
        "numberOfBytes": "32"
      },
      "t_bool": {
        "encoding": "inplace",
        "label": "bool",
        "numberOfBytes": "1"
      },
      "t_mapping(t_address,t_bool)": {
        "encoding": "mapping",
        "key": "t_address",
        "label": "mapping(address => bool)",
        "numberOfBytes": "32",
        "value": "t_bool"
      },
      "t_mapping(t_address,t_uint256)": {
        "encoding": "mapping",
        "key": "t_address",
        "label": "mapping(address => uint256)",
        "numberOfBytes": "32",
        "value": "t_uint256"
      },
      "t_string_storage": {
        "encoding": "bytes",
        "label": "string",
        "numberOfBytes": "32"
      },
      "t_struct(Buku)66_storage": {
        "encoding": "inplace",
        "label": "struct Perpustakaan.Buku",
        "members": [
          {
            "astId": 59,
            "contract": "contracts/Perpustakaan/Perpustakaan.sol:Perpustakaan",
            "label": "ISBN",
            "offset": 0,
            "slot": "0",
            "type": "t_string_storage"
          },
          {
            "astId": 61,
            "contract": "contracts/Perpustakaan/Perpustakaan.sol:Perpustakaan",
            "label": "judul",
            "offset": 0,
            "slot": "1",
            "type": "t_string_storage"
          },
          {
            "astId": 63,
            "contract": "contracts/Perpustakaan/Perpustakaan.sol:Perpustakaan",
            "label": "tahunDibuat",
            "offset": 0,
            "slot": "2",
            "type": "t_uint256"
          },
          {
            "astId": 65,
            "contract": "contracts/Perpustakaan/Perpustakaan.sol:Perpustakaan",
            "label": "penulis",
            "offset": 0,
            "slot": "3",
            "type": "t_string_storage"
          }
        ],
        "numberOfBytes": "128"
      },
      "t_struct(UserDetail)201_storage": {
        "encoding": "inplace",
        "label": "struct Perpustakaan.UserDetail",
        "members": [
          {
            "astId": 196,
            "contract": "contracts/Perpustakaan/Perpustakaan.sol:Perpustakaan",
            "label": "user",
            "offset": 0,
            "slot": "0",
            "type": "t_address"
          },
          {
            "astId": 198,
            "contract": "contracts/Perpustakaan/Perpustakaan.sol:Perpustakaan",
            "label": "isPassed",
            "offset": 20,
            "slot": "0",
            "type": "t_bool"
          },
          {
            "astId": 200,
            "contract": "contracts/Perpustakaan/Perpustakaan.sol:Perpustakaan",
            "label": "userName",
            "offset": 0,
            "slot": "1",
            "type": "t_string_storage"
          }
        ],
        "numberOfBytes": "64"
      },
      "t_uint256": {
        "encoding": "inplace",
        "label": "uint256",
        "numberOfBytes": "32"
      }
    }
  }
}